:100000000C942A000C94170D0C9447000C94470094
:100010000C9447000C9447000C9447000C94040582
:100020000C9447000C9447000C9447000C94470034
:100030000C9447000C9447000C9447000C94470024
:100040000C9447000C9447000C9447000C94470014
:100050000C94470011241FBECFE5D8E0DEBFCDBF12
:1000600011E0A0E6B0E0ECE6F0E202C005900D92EF
:10007000A83BB107D9F711E0A8EBB1E001C01D9290
:10008000A83FB107E1F70E94AA0B0C9434100C941E
:100090000000DF93CF93CDB7DEB727970FB6F89464
:1000A000DEBF0FBECDBF89836A834B8389818430D5
:1000B00008F0EEC08A81883008F0EAC08B81813078
:1000C00009F06FC08981282F30E03F832E838E8115
:1000D0009F818130910549F12E813F812230310588
:1000E0002CF48E819F81009761F0D2C02E813F81D8
:1000F0002230310571F18E819F8183309105E9F1C4
:10010000C7C0AAE3B0E0EAE3F0E08081482F8A812B
:10011000282F30E081E090E0022E02C0880F991F66
:100120000A94E2F7842B8C93B3C0A7E3B0E0E7E333
:10013000F0E08081482F8A81282F30E081E090E034
:10014000022E02C0880F991F0A94E2F7842B8C9329
:100150009FC0A4E3B0E0E4E3F0E08081482F8A810F
:10016000282F30E081E090E0022E02C0880F991F16
:100170000A94E2F7842B8C938BC0A1E3B0E0E1E317
:10018000F0E08081482F8A81282F30E081E090E0E4
:10019000022E02C0880F991F0A94E2F7842B8C93D9
:1001A00077C08B81882309F073C08981282F30E0C4
:1001B0003D832C838C819D818130910559F12C8167
:1001C0003D81223031052CF48C819D81009769F0AE
:1001D0005FC02C813D812230310589F18C819D8168
:1001E0008330910509F440C053C0AAE3B0E0EAE3CC
:1001F000F0E08081482F8A81282F30E081E090E074
:10020000022E02C0880F991F0A94E2F7809584237A
:100210008C933EC0A7E3B0E0E7E3F0E08081482F95
:100220008A81282F30E081E090E0022E02C0880F02
:10023000991F0A94E2F7809584238C9329C0A4E344
:10024000B0E0E4E3F0E08081482F8A81282F30E09D
:1002500081E090E0022E02C0880F991F0A94E2F715
:10026000809584238C9314C0A1E3B0E0E1E3F0E037
:100270008081482F8A81282F30E081E090E0022E93
:1002800002C0880F991F0A94E2F7809584238C930B
:1002900027960FB6F894DEBF0FBECDBFCF91DF918A
:1002A0000895DF93CF9300D000D000D0CDB7DEB754
:1002B00089836A838981843008F067C08A818F3F8F
:1002C00099F58981282F30E03E832D838D819E8191
:1002D00081309105D1F02D813E81223031052CF401
:1002E0008D819E81009761F050C02D813E8122302A
:1002F000310581F08D819E818330910581F045C06B
:10030000EAE3F0E08FEF808340C0E7E3F0E08FEFB7
:1003100080833BC0E4E3F0E08FEF808336C0E1E30D
:10032000F0E08FEF808331C08A81882371F5898165
:10033000282F30E03C832B838B819C818130910579
:10034000C9F02B813C81223031052CF48B819C81BA
:10035000009761F01AC02B813C812230310571F089
:100360008B819C818330910569F00FC0EAE3F0E056
:1003700010820BC0E7E3F0E0108207C0E4E3F0E096
:10038000108203C0E1E3F0E0108226960FB6F894E5
:10039000DEBF0FBECDBFCF91DF910895DF93CF9326
:1003A000CDB7DEB727970FB6F894DEBF0FBECDBF2F
:1003B00089836A834B838981843008F0EEC08A8107
:1003C000883008F0EAC08B81813009F06FC08981E4
:1003D000282F30E03F832E838E819F8181309105CD
:1003E00049F12E813F81223031052CF48E819F818D
:1003F000009761F0D2C02E813F812230310571F12A
:100400008E819F8183309105E9F1C7C0ABE3B0E0F5
:10041000EBE3F0E08081482F8A81282F30E081E0F3
:1004200090E0022E02C0880F991F0A94E2F7842BF5
:100430008C93B3C0A8E3B0E0E8E3F0E08081482FFC
:100440008A81282F30E081E090E0022E02C0880FE0
:10045000991F0A94E2F7842B8C939FC0A5E3B0E028
:10046000E5E3F0E08081482F8A81282F30E081E0A9
:1004700090E0022E02C0880F991F0A94E2F7842BA5
:100480008C938BC0A2E3B0E0E2E3F0E08081482FE0
:100490008A81282F30E081E090E0022E02C0880F90
:1004A000991F0A94E2F7842B8C9377C08B81882361
:1004B00009F073C08981282F30E03D832C838C8123
:1004C0009D818130910559F12C813D81223031058A
:1004D0002CF48C819D81009769F05FC02C813D8157
:1004E0002230310589F18C819D818330910509F499
:1004F00040C053C0ABE3B0E0EBE3F0E08081482FB5
:100500008A81282F30E081E090E0022E02C0880F1F
:10051000991F0A94E2F7809584238C933EC0A8E348
:10052000B0E0E8E3F0E08081482F8A81282F30E0B6
:1005300081E090E0022E02C0880F991F0A94E2F732
:10054000809584238C9329C0A5E3B0E0E5E3F0E037
:100550008081482F8A81282F30E081E090E0022EB0
:1005600002C0880F991F0A94E2F7809584238C9328
:1005700014C0A2E3B0E0E2E3F0E08081482F8A817A
:10058000282F30E081E090E0022E02C0880F991FF2
:100590000A94E2F7809584238C9327960FB6F894FB
:1005A000DEBF0FBECDBFCF91DF910895DF93CF9314
:1005B00000D000D0CDB7DEB789836A8389818430CB
:1005C00090F58981282F30E03C832B838B819C819F
:1005D00081309105D1F02B813C81223031052CF402
:1005E0008B819C81009761F01EC02B813C81223061
:1005F000310581F08B819C818330910581F013C09E
:10060000EBE3F0E08A8180830EC0E8E3F0E08A81CA
:10061000808309C0E5E3F0E08A81808304C0E2E3DF
:10062000F0E08A8180830F900F900F900F90CF9110
:10063000DF910895DF93CF9300D000D00F92CDB714
:10064000DEB78A836B8319828A81843008F06BC09D
:100650008B81883008F067C08A81282F30E03D8385
:100660002C834C815D814130510541F18C819D810C
:100670008230910534F42C813D812115310561F0E2
:1006800052C04C815D814230510551F18C819D8178
:1006900083309105B9F147C0E9E3F0E08081282F6C
:1006A00030E08B81882F90E0A90102C055954795D5
:1006B0008A95E2F7CA018170898335C0E6E3F0E0EC
:1006C0008081282F30E08B81882F90E0A90102C023
:1006D000559547958A95E2F7CA018170898323C0B1
:1006E000E3E3F0E08081282F30E08B81882F90E0D9
:1006F000A90102C0559547958A95E2F7CA01817014
:10070000898311C0E0E3F0E08081282F30E08B8105
:10071000882F90E0A90102C0559547958A95E2F788
:10072000CA018170898389810F900F900F900F907B
:100730000F90CF91DF910895DF93CF93CDB7DEB7C0
:10074000A5E5B0E0E5E5F0E0808182608C93A5E569
:10075000B0E0E5E5F0E080818E7F8C93ABE5B0E022
:10076000EBE5F0E0808180648C93CF91DF91089578
:10077000DF93CF93CDB7DEB7AFE5B0E0EFE5F0E0C4
:10078000808180688C93CF91DF910895DF93CF9320
:10079000CDB7DEB7AFE5B0E0EFE5F0E080818F7771
:1007A0008C93CF91DF910895DF93CF93CDB7DEB7D0
:1007B000A0E4B0E0E0E4F0E08081877F8C93A0E4E7
:1007C000B0E0E0E4F0E0808182608C93A0E4B0E0EF
:1007D000E0E4F0E0808184608C93AAE2B0E0EAE299
:1007E000F0E080818B7F8C93A0E4B0E0E0E4F0E067
:1007F00080818F7E8C93A0E4B0E0E0E4F0E0808123
:100800008F7D8C93A0E4B0E0E0E4F0E080818F7B0A
:100810008C93E9E2F0E083E38083E0E4F0E010828F
:10082000AAE2B0E0EAE2F0E0808188608C93AAE27C
:10083000B0E0EAE2F0E0808180618C93CF91DF91BB
:100840000895DF93CF930F92CDB7DEB78983EBE2A4
:10085000F0E08081829586958770882F90E0817086
:1008600090700097A1F3ECE2F0E0898180830F9013
:10087000CF91DF910895DF93CF93CDB7DEB7EBE251
:10088000F0E080818823DCF7ECE2F0E08081CF911A
:10089000DF910895DF93CF93CDB7DEB7A3E5B0E046
:1008A000E3E5F0E080818F7B8C93A3E5B0E0E3E5A6
:1008B000F0E08081877F8C93E2E5F0E08DE7808334
:1008C000A3E5B0E0E3E5F0E0808181608C93A3E5EF
:1008D000B0E0E3E5F0E0808182608C93A3E5B0E0D6
:1008E000E3E5F0E080818B7F8C93E8E5F0E08081A8
:1008F000882F90E0817090700097B9F3A3E5B0E085
:10090000E3E5F0E080818E7F8C93A3E5B0E0E3E542
:10091000F0E080818D7F8C93A3E5B0E0E3E5F0E02B
:1009200080818B7F8C93A8E5B0E0E8E5F0E08081E2
:1009300081608C93CF91DF910895DF93CF9300D0A6
:1009400000D0CDB7DEB79C838B831A82198207C093
:100950000E944A0489819A8101969A838983298118
:100960003A818B819C812817390790F30F900F9063
:100970000F900F90CF91DF910895DF93CF93CDB774
:10098000DEB7AFE4B0E0EFE4F0E080818E7F8C93DF
:10099000AFE4B0E0EFE4F0E080818D7F8C93AEE4D3
:1009A000B0E0EEE4F0E0808188608C93AEE4B0E0EB
:1009B000EEE4F0E080818F7E8C93EAE4F0E08AEF51
:1009C00090E091838083A9E5B0E0E9E5F0E08081E3
:1009D00080618C930E94B803AEE4B0E0EEE4F0E0F6
:1009E00080818E7F8C93AEE4B0E0EEE4F0E0808115
:1009F0008D7F8C93AEE4B0E0EEE4F0E08081846023
:100A00008C93CF91DF9108951F920F920FB60F92A2
:100A100011242F933F934F935F936F937F938F9303
:100A20009F93AF93BF93EF93FF93DF93CF93CDB794
:100A3000DEB78091B8019091B901009729F0E0915B
:100A4000B801F091B9010995CF91DF91FF91EF9134
:100A5000BF91AF919F918F917F916F915F914F91D6
:100A60003F912F910F900FBE0F901F901895DF931D
:100A7000CF9300D00F92CDB7DEB79B838A8381E0FE
:100A800089838A819B81009739F08A819B81909329
:100A9000B9018093B80101C0198289810F900F902C
:100AA0000F90CF91DF910895DF93CF930F92CDB741
:100AB000DEB7898382E060E040E00E94CE0182E000
:100AC00061E040E00E94CE0180E069810E94D60290
:100AD00082E062E041E00E94CE0182E090E00E946C
:100AE0009D0482E062E040E00E94CE010F90CF9131
:100AF000DF910895DF93CF930F92CDB7DEB789834F
:100B000082E060E041E00E94CE0182E061E040E0EE
:100B10000E94CE0180E069810E94D60282E062E0FC
:100B200041E00E94CE0182E090E00E949D0482E0BC
:100B300062E040E00E94CE010F90CF91DF910895D6
:100B4000DF93CF93CDB7DEB788E290E00E949D049B
:100B500088E30E9454058CE00E94540581E00E94C5
:100B60005405CF91DF910895DF93CF9300D00F927A
:100B7000CDB7DEB79B838A83198212C08981282F63
:100B800030E08A819B81FC01E20FF31F80810E948B
:100B90007A0589818F5F89838AE090E00E949D04B5
:100BA0008981282F30E08A819B81FC01E20FF31FAD
:100BB0008081882319F70F900F900F90CF91DF91CC
:100BC0000895DF93CF9300D00F92CDB7DEB78A831D
:100BD0006B838A81882319F48B81898314C08A816D
:100BE000813021F48B81805C89830DC08A818230C1
:100BF00021F48B81805F898306C08A81833019F458
:100C00008B81805B8983898180580E9454050F9075
:100C10000F900F90CF91DF910895DF93CF93CDB7D1
:100C2000DEB781E00E945405CF91DF910895DF93F4
:100C3000CF930F92CDB7DEB70E940D0619829EC0EA
:100C40000E9427078CED95E00E949D040E940D06EE
:100C500080E690E00E94B40583E060E00E94E10538
:100C600080E790E00E94B4050E9474098093BB0164
:100C70008091BB018F3F21F48091BC018130A1F7AD
:100C80008091BB01833409F481C08091BB01805302
:100C90008093BE018091BE01882F90E00197FC01F6
:100CA000E154FE4F8081882309F05EC08091BB0132
:100CB000882F90E0C1978430910508F04AC00E94C7
:100CC0000D0681E060E00E94E10581E890E00E946D
:100CD000B4058091BB010E947A0582E060E00E9429
:100CE000E10580E990E00E94B40581E0898380916C
:100CF000BE01882F90E09C01220F331FC901880F8D
:100D0000991F880F991F820F931F8A539E4F23ECC0
:100D100031E0B9010E94B40A8091BE01882F90E0B1
:100D200001972091BE01FC01E154FE4F208388EE23
:100D300093E00E949D040E940D0681EA90E00E94CB
:100D4000B40581E00E94210484EF91E00E949D049B
:100D500015C00E940D0682EB90E00E94B40584EF5E
:100D600091E00E949D040AC00E940D0682EC90E072
:100D70000E94B40588EE93E00E949D048981882337
:100D800029F48091BC01813009F05ACF0F90CF91A6
:100D9000DF910895DF93CF9300D00F92CDB7DEB7E8
:100DA0000E940D0686ED90E00E94B405198245C0B0
:100DB0008981882F90E0FC01E154FE4F8081282F2B
:100DC00030E08981882F90E001962817390791F546
:100DD0008981882F90E0FC01E154FE4F8081282F0B
:100DE00030E000D000D000D0EDB7FEB73196CE0194
:100DF00002969183808386EE90E09383828335838D
:100E000024830E945C0D8DB79EB706960FB6F894AA
:100E10009EBF0FBE8DBF8981882F90E0880F991FDC
:100E2000982F9D5F82E0692F0E94E105CE01029616
:100E30000E94B40589818F5F89838981843008F499
:100E4000B7CF0F900F900F90CF91DF910895DF9360
:100E5000CF9300D00F92CDB7DEB70E940D0689EE7A
:100E600090E00E94B405198242C08981882F90E0E9
:100E7000FC01E154FE4F8081282F30E08981882FCA
:100E800090E001962817390779F18981882F90E041
:100E90009C012F5F3F4F00D000D000D0EDB7FEB7D0
:100EA0003196CE0102969183808386EE90E0938303
:100EB0008283358324830E945C0D8DB79EB706968E
:100EC0000FB6F8949EBF0FBE8DBF8981882F90E02A
:100ED000880F991F982F9D5F82E0692F0E94E1057E
:100EE000CE0102960E94B40589818F5F8983898132
:100EF000843008F4BACF0F900F900F90CF91DF910C
:100F00000895DF93CF93CDB7DEB768970FB6F89407
:100F1000DEBF0FBECDBF8AE08C838AE08B83AAC080
:100F20000E940D068AEF90E00E94B40581E060E027
:100F30000E94E1058AE091E00E94B40583E060E050
:100F40000E94E10580E790E00E94B4050E947409C8
:100F50008093BB018091BB018F3F21F48091BC0144
:100F60008130A1F78091BB01833409F488C080915E
:100F7000BB01882F90E0C1978430910508F06CC0C8
:100F80008091BB0180538093BE018091BE01882F68
:100F900090E00197FC01E154FE4F90818091BE01E9
:100FA000981709F04EC081E08093BA018091BE018C
:100FB000882F90E09C01220F331FC901880F991FD1
:100FC000880F991F820F931F8A539E4F23EC31E0A5
:100FD000B9010E94D70A8091BE01882F90E09C0140
:100FE000220F331FC901880F991F880F991F820F85
:100FF000931F8A539E4F0E94FA0A8091BE01882F48
:1010000090E0880F991F9C01220F331F220F331F7E
:10101000820F931FFC01E353FE4F80818A839C81E2
:101020008A81989F902D11248B81890F89838091CB
:10103000BE01882F90E00197FC01E154FE4F108221
:1010400015C00E940D0686E191E00E94B40588EE6D
:1010500093E00E949D040AC00E940D0682EB90E07E
:101060000E94B40588EE93E00E949D048091BA012D
:10107000813029F08091BC01813009F051CF8091FD
:10108000BA01813009F0D0C01092BA010E940D0659
:1010900089E291E00E94B4058981282F30E000D0D8
:1010A00000D000D0EDB7FEB73196CE010596918302
:1010B000808386EE90E093838283358324830E942D
:1010C0005C0D8DB79EB706960FB6F8949EBF0FBE07
:1010D0008DBFCE0105960E94B40581E060E00E94BC
:1010E000E10584E391E00E94B4058091BE01882F60
:1010F00090E0880F991F9C01220F331F220F331F8E
:10110000820F931FFC01E353FE4F8081282F30E0B4
:1011100000D000D000D0EDB7FEB73196CE010A96D0
:101120009183808386EE90E093838283358324834A
:101130000E945C0D8DB79EB706960FB6F8949EBFC1
:101140000FBE8DBFCE010A960E94B40588E391E0E0
:101150000E94B4058091BE01882F90E0880F991FEE
:101160009C01220F331F220F331F820F931FFC019C
:10117000E253FE4F8081282F30E000D000D000D015
:10118000EDB7FEB73196CE010F969183808386EE40
:1011900090E093838283358324830E945C0D8DB716
:1011A0009EB706960FB6F8949EBF0FBE8DBFCE01B8
:1011B0000F960E94B4058CE391E00E94B4058091E3
:1011C000BE01882F90E0880F991F9C01220F331FCA
:1011D000220F331F820F931FFC01E153FE4F8081CA
:1011E000282F30E000D000D000D0EDB7FEB7319608
:1011F000CE0144969183808386EE90E09383828330
:10120000358324830E945C0D8DB79EB706960FB67A
:10121000F8949EBF0FBE8DBFCE0144960E94B405C8
:1012200084EF91E00E949D0468960FB6F894DEBFAB
:101230000FBECDBFCF91DF910895DF93CF93CDB790
:10124000DEB781E060E040E00E94490081E061E0BB
:1012500040E00E94490081E062E040E00E944900D5
:1012600081E063E040E00E94490081E060E041E00D
:101270000E94CE0181E061E041E00E94CE0181E068
:1012800062E041E00E94CE0181E063E041E00E9423
:10129000CE0181E064E041E00E94490081E065E028
:1012A00041E00E94490081E066E041E00E9449007F
:1012B00081E067E041E00E94490081E064E041E0B4
:1012C0000E94CE0181E065E041E00E94CE0181E014
:1012D00066E041E00E94CE0181E067E041E00E94CB
:1012E000CE01CF91DF910895DF93CF93CDB7DEB7D5
:1012F000A9970FB6F894DEBF0FBECDBF1B821A822E
:10130000CE0104969EA38DA3E8EAF1E0F8A7EFA32F
:10131000F0E1F9A7EFA1F8A500808FA198A50196AB
:1013200098A78FA3EDA1FEA100828DA19EA1019699
:101330009EA38DA399A5915099A7E9A5EE2351F7F6
:1013400081E08C8B81E08D8B81E08E8B81E08F8BB7
:10135000188E81E0898F82E08A8F83E08B8F81E015
:101360008C8F81E08D8F81E08E8F81E08F8F84E084
:1013700088A385E089A386E08AA387E08BA31A82ED
:10138000A7C08A81282F30E0CE014C96FC01E20FE5
:10139000F31F40818A81282F30E0CE018096FC0126
:1013A000E20FF31F9081842F692F40E00E94CE014D
:1013B0001B8270C08B81282F30E0CE014496FC0147
:1013C000E20FF31F40818B81282F30E0CE01489639
:1013D000FC01E20FF31F9081842F692F0E941A03F2
:1013E00089838981882309F052C082E390E00E94BA
:1013F0009D048B81282F30E0CE014496FC01E20F42
:10140000F31F40818B81282F30E0CE014896FC01EC
:10141000E20FF31F9081842F692F0E941A038983A2
:1014200089818823A1F517C08B81282F30E0CE0158
:101430004496FC01E20FF31F40818B81282F30E09E
:10144000CE014896FC01E20FF31F9081842F692F93
:101450000E941A0389838981882321F48091BC0129
:10146000813011F78B81282F30E08A81482F50E09E
:10147000220F331F220F331FCE010196820F931FBD
:10148000840F951FFC01339680818CA327C08B812C
:101490008F5F8B838B81843008F48CCF8A81282FD7
:1014A00030E0CE014C96FC01E20FF31F40818A81AF
:1014B000282F30E0CE018096FC01E20FF31F9081CF
:1014C000842F692F41E00E94CE018A818F5F8A8339
:1014D0008A81843008F455CF9FEF9CA38CA1A996F4
:1014E0000FB6F894DEBF0FBECDBFCF91DF91089548
:1014F000DF93CF9300D0CDB7DEB79A838983E9819C
:10150000FA8182818B3321F5E981FA811282E981A6
:10151000FA8181818B33A1F4E981FA811182E98119
:10152000FA818081873121F4E981FA81108217C024
:10153000E981FA8180818F5FE981FA8180830FC020
:10154000E981FA8181818F5FE981FA81818307C016
:10155000E981FA8182818F5FE981FA8182830F902C
:101560000F90CF91DF910895DF93CF9300D000D0FB
:10157000CDB7DEB79A8389837C836B83EB81FC8153
:101580008081E981FA818183EB81FC818181E9811C
:10159000FA818283EB81FC818281E981FA818383F4
:1015A0000F900F900F900F90CF91DF910895DF93E0
:1015B000CF9300D000D0CDB7DEB79A8389837C83E8
:1015C0006B83EB81FC818081E981FA818483EB81EB
:1015D000FC818181E981FA818583EB81FC818281B3
:1015E000E981FA8186830F900F900F900F90CF9131
:1015F000DF910895DF93CF93CDB7DEB728970FB66D
:10160000F894DEBF0FBECDBF98878F838F819885FA
:1016100007969E838D838F81988501969C838B830B
:101620008F81988504969A838983E981FA818081E4
:10163000282F30E0EB81FC818081882F90E0A90188
:10164000481B590BCA01992374F4E981FA819081EE
:10165000EB81FC818081592F581B852F885EED819D
:10166000FE8180830CC0E981FA819081EB81FC814D
:101670008081292F281B822FED81FE818083E981C3
:10168000FA818181282F30E0EB81FC818181882FD4
:1016900090E0A901481B590BCA019923ACF4ED81D4
:1016A000FE8180818150ED81FE818083E981FA8114
:1016B0009181EB81FC818181592F581B852F845C9E
:1016C000ED81FE8181830CC0E981FA819181EB81FA
:1016D000FC818181292F281B822FED81FE8181834E
:1016E000E981FA818281282F30E0EB81FC818281BF
:1016F000882F90E0A901481B590BCA019923ACF42B
:10170000ED81FE8181818150ED81FE818183E981BE
:10171000FA819281EB81FC818281592F581B852FA0
:10172000845CED81FE8182830CC0E981FA81928123
:10173000EB81FC818281292F281B822FED81FE8184
:10174000828328960FB6F894DEBF0FBECDBFCF912F
:10175000DF910895DF93CF9300D0CDB7DEB780E05F
:101760006FEF0E94510182E060E041E00E94490079
:1017700082E061E041E00E94490082E062E041E0F5
:101780000E94490082E066E041E00E94490082E058
:1017900067E041E00E94490083E062E040E00E948F
:1017A000490083E062E041E00E94CE010E949C0378
:1017B0000E94B80387E08093C3011092C401109285
:1017C000C5010E94D4030E941D090E94A0050E9429
:1017D000BD0481E09DE00E94370581E090E00E9419
:1017E000210480E090E00E9421040E940D0681E027
:1017F00060E00E94E10580E491E00E94B40582E08F
:1018000060E00E94E10580E591E00E94B40584EF6C
:1018100091E00E949D040E940D0680E691E00E94E6
:10182000B40581E060E00E94E1058FE691E00E944E
:10183000B40582E060E00E94E1058BE791E00E9440
:10184000B40583E060E00E94E1058CE891E00E942D
:10185000B4050E9474098093BB018091BB018F3F46
:1018600021F48091BC018130A1F78091BB01282F28
:1018700030E03A83298389819A8182339105E9F0A6
:1018800029813A812333310534F489819A81813366
:10189000910561F027C029813A8123333105A1F0F8
:1018A00089819A8184339105B1F01CC00E9417068A
:1018B00080ED97E00E949D041FC00E94270780EDE5
:1018C00097E00E949D0418C00E94CA0680ED97E030
:1018D0000E949D0411C00E94810780ED97E00E9444
:1018E0009D040AC00E940D0687E991E00E94B4059C
:1018F00084EF91E00E949D040E947F0C76CFDF93DD
:10190000CF9300D000D0CDB7DEB76FC082E066E0E5
:1019100041E00E94CE0184E690E00E949D0482E0B6
:1019200066E040E00E94CE0184E690E00E949D04C3
:1019300084E690E09C838B8324C082E067E041E0F2
:101940000E94CE0188EE93E02B813C81B9010E9478
:10195000350DCB010E949D0482E067E040E00E94CB
:10196000CE0188EE93E02B813C81B9010E94350DB8
:10197000CB010E949D048B819C818C599F4F9C833D
:101980008B838B819C8123E0893E9207B4F288EEA1
:1019900093E09A83898324C082E067E041E00E945B
:1019A000CE0188EE93E029813A81B9010E94350D7C
:1019B000CB010E949D0482E067E040E00E94CE01DE
:1019C00088EE93E029813A81B9010E94350DCB015F
:1019D0000E949D0489819A81845690409A838983CC
:1019E00089819A8184369105BCF68091BC01813051
:1019F00009F48CCF0F900F900F900F90CF91DF9143
:101A00000895DF93CF93CDB7DEB78091BD018F5F8F
:101A10008093BD018091BD018D3731F483EC91E05D
:101A20000E94780A1092BD01CF91DF9108951F9214
:101A30000F920FB60F9211248F93DF93CF930F92D3
:101A4000CDB7DEB78091BC011982882311F481E003
:101A5000898389818093BC010F90CF91DF918F9111
:101A60000F900FBE0F901F90189597FB092E072619
:101A70000AD077FD04D00CD006D000201AF470955F
:101A800061957F4F0895F6F7909581959F4F089542
:101A9000AA1BBB1B51E107C0AA1FBB1FA617B70794
:101AA00010F0A61BB70B881F991F5A95A9F78095B0
:101AB0009095BC01CD010895AEE0B0E0E2E6FDE016
:101AC0000C940B100D891E8986E08C831A83098380
:101AD0008FEF9FE79E838D839E01275E3F4FCE0150
:101AE00001966F89788DA9010E94800D2F8138851C
:101AF000020F131FF80110822E96E4E00C942710B9
:101B0000ABE0B0E0E6E8FDE00C94FD0F3C012B01FA
:101B10005A01FC0117821682838181FD03C06FEF99
:101B20007FEFC6C19AE0892E1E010894211C311C4A
:101B3000F3012381F20123FD859123FF81912F0180
:101B4000882309F4B2C1853239F423FD859123FF3E
:101B500081912F01853229F490E0B3010E94730F27
:101B6000E7CF982FFF24EE249924FFE1FF15D0F052
:101B70009B3269F09C3228F4903259F0933291F400
:101B80000EC09D3249F0903369F441E024C052E028
:101B9000F52A84E0F82A28C098E0F92A25C0E0E177
:101BA000FE2A22C0F7FC29C0892F80538A3070F4A6
:101BB000F6FE05C0989C902C1124980E15C0E89C48
:101BC000E02C1124E80EF0E2FF2A0EC09E3229F428
:101BD000F6FC6BC140E4F42A07C09C3619F450E8C7
:101BE000F52A02C0983649F4F20123FD959123FFAE
:101BF00091912F01992309F0B8CF892F8554833013
:101C000018F08052833038F444E050E0A40EB51E42
:101C10005FE359830FC0933631F0933779F09335F2
:101C200009F056C020C0F5018081898342E050E070
:101C3000A40EB51E610101E010E012C0F501C080E4
:101C4000D180F6FC03C06FEF7FEF02C0692D70E01A
:101C500042E050E0A40EB51EC6010E94680F8C0140
:101C60005FE7F52214C0F501C080D180F6FC03C007
:101C70006FEF7FEF02C0692D70E042E050E0A40EEC
:101C8000B51EC6010E945D0F8C0150E8F52AF3FED7
:101C900007C01AC080E290E0B3010E94730FEA947B
:101CA0008E2D90E008171907A8F30EC0F601F7FC77
:101CB0008591F7FE81916F0190E0B3010E94730F4F
:101CC000E110EA94015010400115110579F7EAC0BE
:101CD000943611F0993669F5F7FE08C0F5012081B8
:101CE00031814281538184E090E00AC0F501808116
:101CF00091819C01442737FD4095542F82E090E06C
:101D0000A80EB91E9FE6F92257FF09C050954095CD
:101D1000309521953F4F4F4F5F4FE0E8FE2ACA01B3
:101D2000B901A1012AE030E00E949F0FD82ED218FD
:101D300040C0953729F41F2D1F7E2AE030E01DC0DA
:101D40001F2D197F9F3661F0903720F4983509F0E8
:101D5000ACC00FC0903739F0983709F0A6C004C066
:101D600028E030E00AC0106114FD146020E130E08A
:101D700004C014FD166020E132E017FF08C0F50131
:101D8000608171818281938144E050E008C0F50157
:101D900080819181BC0180E090E042E050E0A40E9F
:101DA000B51EA1010E949F0FD82ED2188FE7F82EE2
:101DB000F122F6FE0BC05EEFF522D91438F4F4FEE2
:101DC00007C0F2FC05C08FEEF82202C01D2D01C035
:101DD000192DF4FE0DC0FE01ED0DF11D8081803343
:101DE00019F499EEF92208C01F5FF2FE05C003C086
:101DF0008F2D867809F01F5F0F2DF3FC14C0F0FEC5
:101E00000FC01E1510F09D2C0BC09D2C9E0C911A1E
:101E10001E2D06C080E290E0B3010E94730F1F5F89
:101E20001E15C0F304C01E1510F4E11A01C0EE2403
:101E300004FF0FC080E390E0B3010E94730F02FF24
:101E40001DC001FD03C088E790E00EC088E590E06A
:101E50000BC0802F867891F001FF02C08BE201C099
:101E600080E2F7FC8DE290E0B3010E94730F06C0A0
:101E700080E390E0B3010E94730F9A94D914C0F3E9
:101E8000DA94F101ED0DF11D808190E0B3010E9423
:101E9000730FDD20A9F706C080E290E0B3010E9435
:101EA000730FEA94EE20C1F743CEF3016681778188
:101EB000CB012B96E2E10C941910FC0105906150C6
:101EC00070400110D8F7809590958E0F9F1F089550
:101ED000FC016150704001900110D8F780959095F9
:101EE0008E0F9F1F08950F931F93CF93DF938C0145
:101EF000EB018B8181FF1BC082FF0DC02E813F81D2
:101F00008C819D812817390764F4E881F981019358
:101F1000F983E88306C0E885F985802F0995892B28
:101F200031F48E819F8101969F838E8302C00FEFD3
:101F30001FEFC801DF91CF911F910F910895FA0112
:101F4000AA27283051F1203181F1E8946F936E7FF8
:101F50006E5F7F4F8F4F9F4FAF4FB1E03ED0B4E0E9
:101F60003CD0670F781F891F9A1FA11D680F791F2A
:101F70008A1F911DA11D6A0F711D811D911DA11D3B
:101F800020D009F468943F912AE0269F112430194B
:101F9000305D3193DEF6CF010895462F4770405DE6
:101FA0004193B3E00FD0C9F7F6CF462F4F70405D95
:101FB0004A3318F0495D31FD4052419302D0A9F7F0
:101FC000EACFB4E0A6959795879577956795BA95EA
:101FD000C9F700976105710508959B01AC010A2EB0
:101FE00006945795479537952795BA95C9F7620F87
:101FF000731F841F951FA01D08952F923F924F922B
:102000005F926F927F928F929F92AF92BF92CF9288
:10201000DF92EF92FF920F931F93CF93DF93CDB791
:10202000DEB7CA1BDB0B0FB6F894DEBF0FBECDBF09
:1020300009942A88398848885F846E847D848C84DA
:102040009B84AA84B984C884DF80EE80FD800C81E3
:102050001B81AA81B981CE0FD11D0FB6F894DEBFC6
:0C2060000FBECDBFED010895F894FFCF36
:10206C002043686F6F7365206120736C6F74200060
:10207C00433A20676F20746F206F7074696F6E73B2
:10208C00002020536C6F74204E756D6265722000B9
:10209C002020206973207265736572766564202038
:1020AC000020204F70656E696E6720476174652053
:1020BC00200020496E76616C6964204B6579202183
:1020CC0020002053706F74206E6F742061766169EC
:1020DC006C61626C65002052657365727665642074
:1020EC0053706F747300256400417661696C616292
:1020FC006C6520706C6163657300202020456E74E4
:10210C00657220536C6F7420200020202020204EFC
:10211C00756D626572002053706F74206E6F742041
:10212C00726573657276656400436865636B6F7581
:10213C00743A200020483A00204D3A0020533A00CF
:10214C002057656C636F6D6520746F206F7572001E
:10215C00205061726B696E67204761726167650020
:10216C00312E526573657276652053706F74003230
:10217C002E417661696C61626C6500332E52657319
:10218C0065727665642053706F747300342E4368E7
:10219C0065636B6F75740020496E76616C696420A1
:1021AC004B657920212000043738392F3435362AF5
:0821BC003132332D43303D2B7D
:00000001FF
