:100000000C942A000C943C000C943C000C943C0092
:100010000C943C000C943C000C943C000C94DD04CB
:100020000C943C000C943C000C943C000C943C0060
:100030000C943C000C943C000C943C000C943C0050
:100040000C943C000C943C000C943C000C943C0040
:100050000C943C0011241FBECFE5D8E0DEBFCDBF1D
:1000600010E0A0E6B0E001C01D92A236B107E1F7B2
:100070000E94DA050C9402060C940000DF93CF93E3
:10008000CDB7DEB727970FB6F894DEBF0FBECDBF52
:1000900089836A834B838981843008F0EEC08A812A
:1000A000883008F0EAC08B81813009F06FC0898107
:1000B000282F30E03F832E838E819F8181309105F0
:1000C00049F12E813F81223031052CF48E819F81B0
:1000D000009761F0D2C02E813F812230310571F14D
:1000E0008E819F8183309105E9F1C7C0AAE3B0E01A
:1000F000EAE3F0E08081482F8A81282F30E081E018
:1001000090E0022E02C0880F991F0A94E2F7842B18
:100110008C93B3C0A7E3B0E0E7E3F0E08081482F21
:100120008A81282F30E081E090E0022E02C0880F03
:10013000991F0A94E2F7842B8C939FC0A4E3B0E04C
:10014000E4E3F0E08081482F8A81282F30E081E0CD
:1001500090E0022E02C0880F991F0A94E2F7842BC8
:100160008C938BC0A1E3B0E0E1E3F0E08081482F05
:100170008A81282F30E081E090E0022E02C0880FB3
:10018000991F0A94E2F7842B8C9377C08B81882384
:1001900009F073C08981282F30E03D832C838C8146
:1001A0009D818130910559F12C813D8122303105AD
:1001B0002CF48C819D81009769F05FC02C813D817A
:1001C0002230310589F18C819D818330910509F4BC
:1001D00040C053C0AAE3B0E0EAE3F0E08081482FDA
:1001E0008A81282F30E081E090E0022E02C0880F43
:1001F000991F0A94E2F7809584238C933EC0A7E36D
:10020000B0E0E7E3F0E08081482F8A81282F30E0DA
:1002100081E090E0022E02C0880F991F0A94E2F755
:10022000809584238C9329C0A4E3B0E0E4E3F0E05C
:100230008081482F8A81282F30E081E090E0022ED3
:1002400002C0880F991F0A94E2F7809584238C934B
:1002500014C0A1E3B0E0E1E3F0E08081482F8A819F
:10026000282F30E081E090E0022E02C0880F991F15
:100270000A94E2F7809584238C9327960FB6F8941E
:10028000DEBF0FBECDBFCF91DF910895DF93CF9337
:1002900000D000D000D0CDB7DEB789836A838981D2
:1002A000843008F067C08A818F3F99F58981282FB3
:1002B00030E03E832D838D819E8181309105D1F088
:1002C0002D813E81223031052CF48D819E81009755
:1002D00061F050C02D813E812230310581F08D8149
:1002E0009E818330910581F045C0EAE3F0E08FEF15
:1002F000808340C0E7E3F0E08FEF80833BC0E4E31E
:10030000F0E08FEF808336C0E1E3F0E08FEF808391
:1003100031C08A81882371F58981282F30E03C83A0
:100320002B838B819C8181309105C9F02B813C818D
:10033000223031052CF48B819C81009761F01AC02A
:100340002B813C812230310571F08B819C8183307F
:10035000910569F00FC0EAE3F0E010820BC0E7E31B
:10036000F0E0108207C0E4E3F0E0108203C0E1E3B4
:10037000F0E0108226960FB6F894DEBF0FBECDBF18
:10038000CF91DF910895DF93CF93CDB7DEB7279755
:100390000FB6F894DEBF0FBECDBF89836A834B834F
:1003A0008981843008F0EEC08A81883008F0EAC084
:1003B0008B81813009F06FC08981282F30E03F8325
:1003C0002E838E819F818130910549F12E813F815D
:1003D000223031052CF48E819F81009761F0D2C0CC
:1003E0002E813F812230310571F18E819F818330D2
:1003F0009105E9F1C7C0ABE3B0E0EBE3F0E0808149
:10040000482F8A81282F30E081E090E0022E02C040
:10041000880F991F0A94E2F7842B8C93B3C0A8E34A
:10042000B0E0E8E3F0E08081482F8A81282F30E0B7
:1004300081E090E0022E02C0880F991F0A94E2F733
:10044000842B8C939FC0A5E3B0E0E5E3F0E08081CE
:10045000482F8A81282F30E081E090E0022E02C0F0
:10046000880F991F0A94E2F7842B8C938BC0A2E328
:10047000B0E0E2E3F0E08081482F8A81282F30E06D
:1004800081E090E0022E02C0880F991F0A94E2F7E3
:10049000842B8C9377C08B81882309F073C089816A
:1004A000282F30E03D832C838C819D818130910504
:1004B00059F12C813D81223031052CF48C819D81B4
:1004C000009769F05FC02C813D812230310589F1B0
:1004D0008C819D818330910509F440C053C0ABE30A
:1004E000B0E0EBE3F0E08081482F8A81282F30E0F4
:1004F00081E090E0022E02C0880F991F0A94E2F773
:10050000809584238C933EC0A8E3B0E0E8E3F0E05C
:100510008081482F8A81282F30E081E090E0022EF0
:1005200002C0880F991F0A94E2F7809584238C9368
:1005300029C0A5E3B0E0E5E3F0E08081482F8A819F
:10054000282F30E081E090E0022E02C0880F991F32
:100550000A94E2F7809584238C9314C0A2E3B0E060
:10056000E2E3F0E08081482F8A81282F30E081E0AB
:1005700090E0022E02C0880F991F0A94E2F780953E
:1005800084238C9327960FB6F894DEBF0FBECDBFA1
:10059000CF91DF910895DF93CF9300D000D0CDB7F6
:1005A000DEB789836A838981843090F58981282F19
:1005B00030E03C832B838B819C8181309105D1F08D
:1005C0002B813C81223031052CF48B819C8100975A
:1005D00061F01EC02B813C812230310581F08B817E
:1005E0009C818330910581F013C0EBE3F0E08A81B8
:1005F00080830EC0E8E3F0E08A81808309C0E5E3F0
:10060000F0E08A81808304C0E2E3F0E08A818083A5
:100610000F900F900F900F90CF91DF910895DF937F
:10062000CF9300D000D00F92CDB7DEB78A836B8313
:1006300019828A81843008F06BC08B81883008F081
:1006400067C08A81282F30E03D832C834C815D81F7
:100650004130510541F18C819D818230910534F406
:100660002C813D812115310561F052C04C815D81A5
:100670004230510551F18C819D8183309105B9F152
:1006800047C0E9E3F0E08081282F30E08B81882F9C
:1006900090E0A90102C0559547958A95E2F7CA01F5
:1006A0008170898335C0E6E3F0E08081282F30E057
:1006B0008B81882F90E0A90102C0559547958A95B6
:1006C000E2F7CA018170898323C0E3E3F0E080810F
:1006D000282F30E08B81882F90E0A90102C055952A
:1006E00047958A95E2F7CA018170898311C0E0E3DA
:1006F000F0E08081282F30E08B81882F90E0A901E5
:1007000002C0559547958A95E2F7CA0181708983A1
:1007100089810F900F900F900F900F90CF91DF91E4
:100720000895DF93CF93CDB7DEB7AFE5B0E0EFE547
:10073000F0E0808180688C93CF91DF910895DF9302
:10074000CF93CDB7DEB7AFE5B0E0EFE5F0E0808165
:100750008F778C93CF91DF910895DF93CF93CDB7AF
:10076000DEB7A0E4B0E0E0E4F0E08081877F8C9326
:10077000A0E4B0E0E0E4F0E0808182608C93A0E44B
:10078000B0E0E0E4F0E0808184608C93AAE2B0E025
:10079000EAE2F0E080818B7F8C93A0E4B0E0E0E4BB
:1007A000F0E080818F7E8C93A0E4B0E0E0E4F0E0A4
:1007B00080818F7D8C93A0E4B0E0E0E4F0E0808164
:1007C0008F7B8C93E9E2F0E083E38083E0E4F0E068
:1007D0001082AAE2B0E0EAE2F0E0808188608C93C7
:1007E000AAE2B0E0EAE2F0E0808180618C93CF91F0
:1007F000DF910895DF93CF930F92CDB7DEB7898352
:10080000EBE2F0E08081829586958770882F90E0FA
:10081000817090700097A1F3ECE2F0E08981808311
:100820000F90CF91DF910895DF93CF93CDB7DEB7CF
:10083000EBE2F0E080818823DCF7ECE2F0E08081FD
:10084000CF91DF910895DF93CF93CDB7DEB7A3E5C6
:10085000B0E0E3E5F0E080818F7B8C93A3E5B0E02E
:10086000E3E5F0E08081877F8C93E2E5F0E08DE7BF
:100870008083A3E5B0E0E3E5F0E0808181608C93C4
:10088000A3E5B0E0E3E5F0E0808182608C93A3E52E
:10089000B0E0E3E5F0E080818B7F8C93E8E5F0E069
:1008A0008081882F90E0817090700097B9F3A3E564
:1008B000B0E0E3E5F0E080818E7F8C93A3E5B0E0CB
:1008C000E3E5F0E080818D7F8C93A3E5B0E0E3E584
:1008D000F0E080818B7F8C93A8E5B0E0E8E5F0E064
:1008E000808181608C93CF91DF910895DF93CF93C6
:1008F00000D000D0CDB7DEB79C838B831A821982DB
:1009000007C00E94230489819A8101969A83898372
:1009100029813A818B819C812817390790F30F90A8
:100920000F900F900F90CF91DF910895DF93CF93A9
:10093000CDB7DEB7AFE4B0E0EFE4F0E080818E7FCA
:100940008C93AFE4B0E0EFE4F0E080818D7F8C9396
:10095000AEE4B0E0EEE4F0E0808188608C93AEE439
:10096000B0E0EEE4F0E080818F7E8C93EAE4F0E08A
:100970008AEF90E091838083A9E5B0E0E9E5F0E0BB
:10098000808180618C930E949103AEE4B0E0EEE43C
:10099000F0E080818E7F8C93AEE4B0E0EEE4F0E096
:1009A00080818D7F8C93AEE4B0E0EEE4F0E0808156
:1009B00084608C93CF91DF9108951F920F920FB6B0
:1009C0000F9211242F933F934F935F936F937F93D5
:1009D0008F939F93AF93BF93EF93FF93DF93CF9347
:1009E000CDB7DEB78091600090916100009729F04B
:1009F000E0916000F09161000995CF91DF91FF9146
:100A0000EF91BF91AF919F918F917F916F915F9186
:100A10004F913F912F910F900FBE0F901F901895FF
:100A2000DF93CF9300D00F92CDB7DEB79B838A833D
:100A300081E089838A819B81009739F08A819B813B
:100A4000909361008093600001C0198289810F90AA
:100A50000F900F90CF91DF910895DF93CF93CDB793
:100A6000DEB7AFE4B0E0EFE4F0E080818F7B8C9301
:100A7000AFE4B0E0EFE4F0E0808180688C93AFE415
:100A8000B0E0EFE4F0E080818E7F8C93AFE4B0E0E3
:100A9000EFE4F0E0808182608C93AEE4B0E0EEE4BD
:100AA000F0E0808188608C93AEE4B0E0EEE4F0E0AA
:100AB000808180618C93AEE4B0E0EEE4F0E0808170
:100AC000887F8C93AEE4B0E0EEE4F0E08081826059
:100AD0008C93CF91DF910895DF93CF9300D0CDB762
:100AE000DEB79A838983EAE4F0E089819A81918371
:100AF00080830F900F90CF91DF910895DF93CF9374
:100B000000D0CDB7DEB79A838983E6E4F0E089812F
:100B10009A81918380830F900F90CF91DF910895F8
:100B2000DF93CF9300D0CDB7DEB788EE93E09A8302
:100B300089830DC089819A810E946C058AE090E0CA
:100B40000E94760489819A8101969A83898389819A
:100B50009A8124E08234920768F388EB9BE00E943C
:100B600076040E94B8050F900F90CF91DF91089501
:100B7000DF93CF9300D0CDB7DEB782E494E09A83C1
:100B800089830DC089819A810E946C058AE090E07A
:100B90000E94760489819A8101979A838983898149
:100BA0009A8123E0873E920768F70F900F90CF91CC
:100BB000DF910895DF93CF930F92CDB7DEB783E037
:100BC00065E041E00E943E0083E060E040E00E947A
:100BD0003E0083E061E041E00E943E000E94AD03E0
:100BE0000E942D0580E29EE40E947E050E9414046E
:100BF00089830E941404898389818130D1F70E94FE
:080C00009005F7CFF894FFCF37
:00000001FF
